:020000040800F2
:1000000058220020D90300087D0400087D04000860
:100010007D0400087D0400087D0400080000000045
:10002000000000000000000000000000991C000813
:100030007D040008000000009D1D0008F51D00085B
:100040007D0400087D0400087D0400087D0400088C
:100050007D0400087D0400087D0400087D0400087C
:100060007D0400087D0400087D0400087D0400086C
:100070007D0400087D0400087D0400087D0400085C
:100080007D0400087D0400087D0400087D0400084C
:100090007D0400087D0400087D04000815050008A3
:1000A0007D0400087D0400087D0400087D0400082C
:1000B0007D0400087D0400087D0400087D0400081C
:1000C0007D0400087D0400087D0400087D0400080C
:1000D0007D0400087D0400087D0400087D040008FC
:1000E0007D0400087D0400087D0400087D040008EC
:1000F0007D0400087D0400087D0400087D040008DC
:100100007D0400087D0400087D0400087D040008CB
:100110007D0400087D0400087D0400087D040008BB
:100120007D0400087D0400087D0400087D040008AB
:100130007D0400087D0400087D0400087D0400089B
:100140007D0400087D0400087D0400087D0400088B
:100150007D0400087D0400087D0400087D0400087B
:100160007D0400087D0400087D0400087D0400086B
:100170007D0400087D0400087D0400087D0400085B
:100180007D0400087D04000890B484B000AF0246EE
:100190000B46FA71BB714FF00003FB60BB7903F0B3
:1001A00003034FEA83034FF00F0202FA03F3FB60ED
:1001B0004FF46053C4F20103BA794FEA9202D2B20B
:1001C00010464FF46052C4F20102B9794FEA91012E
:1001D000C9B201F1020152F82110FA686FEA020275
:1001E000114000F1020243F822104FF46053C4F2B0
:1001F0000103BA794FEA9202D2B210464FF460522C
:10020000C4F20102B9794FEA9101C9B201F10201C8
:1002100052F82110FC79BA7902F003024FEA820207
:1002200004FA02F2114300F1020243F8221007F12E
:100230001007BD4690BC704780B582B000AF7860B3
:1002400000E000BF41F65C03C2F200031B787F2B85
:1002500008D14FF48060C4F202004FF0800101F039
:1002600031F907E04FF48060C4F202004FF08001E2
:1002700001F036F941F65C03C2F200031B78802BD3
:10028000DFD141F65C03C2F200034FF000021A70A6
:10029000D7E700BF80B58AB000AF4FF040033B62A4
:1002A0004FF0020387F824304FF0000387F8263020
:1002B0004FF0010387F827304FF0030387F825300C
:1002C0004FF004004FF0010100F06AF94FF0020016
:1002D0004FF0010100F03AF907F120034FF480607C
:1002E000C4F20200194601F02DF84FF48060C4F208
:1002F00002004FF006014FF0020201F0FFF84FF04C
:100300006403BB824FF00003FB824FF06403BB61C8
:100310004FF00003BB834FF00003BB7707F11403DA
:100320004FF40060C4F20000194601F0E9FE4FF0FE
:1003300060033B804FF001037B804FF00003BB81E3
:100340004FF03203BB603B464FF40060C4F2000044
:10035000194601F08FFF4FF40060C4F200004FF027
:10036000080102F005F84FF40060C4F200004FF0FD
:10037000010101F03FFF4FF40060C4F200004FF0B4
:10038000010101F057FF07F12807BD4680BD00BFFE
:1003900080B582B000AF4FF002004FF0010100F0D5
:1003A000D5F84FF080033B604FF001033B714FF0F5
:1003B0000003BB714FF00103FB714FF003037B712E
:1003C0003B464FF48060C4F20200194600F0BAFFC9
:1003D00007F10807BD4680BD80B582B000AF42F688
:1003E0002463C0F600037B6040F20003C2F2000306
:1003F0003B600BE07B681A683B681A603B6803F15E
:1004000004033B607B6803F104037B603A6840F6B9
:100410005C03C2F200039A42ECD340F65C03C2F2E2
:1004200000033B6007E03B6845F2AA521A603B6854
:1004300003F104033B603A680C4B9A42F3D30C4837
:100440000C494FF000028842B8BF40F8042BFFF679
:10045000FAAFDFF82400016841F47001016000F098
:1004600011F807F10807BD4680BD00BF5C180020E9
:100470005C180020581A002088ED00E080B400AF1E
:10048000FEE700BF80B584B004AF01F00BF901F0C6
:1004900061F901F049FB01F075FBFFF7FBFEFFF787
:1004A00077FF00F0D1F84FF0010300934FF0000305
:1004B00001934FF0000302934FF00003039340F2C7
:1004C0003920C0F6000042F6B851C0F600014FF4E2
:1004D00080724FF0000300F0D1FA4FF00103009357
:1004E0004FF0000301934FF0000302934FF000031D
:1004F000039341F6A920C0F6000042F6BC51C0F6B5
:1005000000014FF480724FF0000300F0B7FA00F0E2
:1005100089FBFEE780B500AF4FF0400001F042FDDF
:100520000346002B10D041F65C03C2F200031B7897
:1005300003F10103DAB241F65C03C2F200031A7060
:100540004FF0400001F05AFD80BD00BF80B483B081
:1005500000AF78600B46FB70FB78002B0CD04FF49B
:100560006053C4F202034FF46052C4F20202116BF2
:100570007A680A431A630DE04FF46053C4F2020331
:100580004FF46052C4F20202116B7A686FEA020201
:100590000A401A6307F10C07BD4680BC704700BFD4
:1005A00080B483B000AF78600B46FB70FB78002B03
:1005B0000CD04FF46053C4F202034FF46052C4F203
:1005C0000202116C7A680A431A640DE04FF460531A
:1005D000C4F202034FF46052C4F20202116C7A6852
:1005E0006FEA02020A401A6407F10C07BD4680BC9C
:1005F000704700BF80B483B000AF78600B46FB70DB
:10060000FB78002B0CD04FF46053C4F202034FF47C
:100610006052C4F20202516C7A680A435A640DE0D7
:100620004FF46053C4F202034FF46052C4F202026A
:10063000516C7A686FEA02020A405A6407F10C07AB
:10064000BD4680BC704700BF80B584B000AF4FF49A
:1006500080404FF00101FFF7CDFF4FF001004FF058
:100660000601FFF791FD4FF040037B604FF0000360
:100670003B724FF008037B724FF00103BB7207F12E
:100680000403184601F0F2FB4FF017033B734FF0E1
:1006900001037B734FF00103BB734FF00103FB7346
:1006A00007F10C03184601F0B9FC07F11007BD462D
:1006B00080BD00BF80B485B000AF786039604FF076
:1006C0000003FB604FF00003FB727B685B68FB601C
:1006D000FB6823F0407323F48073FB603B681B7955
:1006E0004FEA03223B681B681343FA681343FB601D
:1006F0007B68FA685A607B689B68FB60FA684FF217
:10070000FD73CCF2FF031340FB603B681A693B6842
:10071000DB681A433B689B681A433B685B794FEA86
:1007200043031343FA681343FB607B68FA689A60DB
:100730007B68DB6AFB60FB6823F47003FB603B684B
:100740001B7D03F1FF33DAB2FB7A1343FB72FB7AB2
:100750004FEA0353FA681343FB607B68FA68DA6276
:1007600007F11407BD4680BC704700BF80B483B05A
:1007700000AF78607B684FF000021A607B684FF032
:1007800000021A717B684FF000025A717B684FF0CB
:1007900000029A607B684FF00002DA607B684FF0DD
:1007A00000021A617B684FF001021A7507F10C070D
:1007B000BD4680BC704700BF80B485B000AF786094
:1007C0004FF00003FB604FF40C53C4F201035B686D
:1007D000FB60FA6843F2E003CFF6FC731340FB6062
:1007E0007B681A687B685B681A437B689B681A435E
:1007F0007B68DB681343FA681343FB604FF40C53C8
:10080000C4F20103FA685A6007F11407BD4680BCC0
:10081000704700BF80B483B000AF78600B46FB70B8
:10082000FB78002B06D07B689B6843F001027B6855
:100830009A6005E07B689B6823F001027B689A6000
:1008400007F10C07BD4680BC704700BF80B485B07F
:1008500000AF7860F970BA707B704FF00003FB60F6
:100860004FF00003BB60FB78092B27D97B68DB685E
:10087000FB60FA7813464FEA43039B18A3F11E036B
:100880004FF0070202FA03F3BB60BB686FEA030391
:10089000FA681340FB607978FA7813464FEA43030D
:1008A0009B18A3F11E0301FA03F3BB60FA68BB684F
:1008B0001343FB607B68FA68DA6022E07B681B699F
:1008C000FB60FA7813464FEA43039B184FF0070288
:1008D00002FA03F3BB60BB686FEA0303FA681340D4
:1008E000FB607978FA7813464FEA43039B1801FAC4
:1008F00003F3BB60FA68BB681343FB607B68FA686C
:100900001A61BB78062B27D87B685B6BFB60BB78D2
:1009100003F1FF3213464FEA83039B184FF01F0287
:1009200002FA03F3BB60BB686FEA0303FA68134083
:10093000FB60F978BB7803F1FF3213464FEA83037B
:100940009B1801FA03F3BB60FA68BB681343FB60B2
:100950007B68FA685A6351E0BB780C2B27D87B6818
:100960001B6BFB60BA7813464FEA83039B18A3F115
:1009700023034FF01F0202FA03F3BB60BB686FEA68
:100980000303FA681340FB60F978BA7813464FEA1C
:1009900083039B18A3F1230301FA03F3BB60FA68F6
:1009A000BB681343FB607B68FA681A6326E07B68C8
:1009B000DB6AFB60BA7813464FEA83039B18A3F106
:1009C00041034FF01F0202FA03F3BB60BB686FEAFA
:1009D0000303FA681340FB60F978BA7813464FEACC
:1009E00083039B18A3F1410301FA03F3BB60FA6888
:1009F000BB681343FB607B68FA68DA6207F114078F
:100A0000BD4680BC704700BF80B483B000AF786043
:100A10007B689B6843F080427B689A6007F10C0713
:100A2000BD4680BC704700BF80B483B000AF786023
:100A30000B46FB70FB78002B06D07B689B6843F469
:100A400080627B689A6005E07B689B6823F4806223
:100A50007B689A6007F10C07BD4680BC704700BFF9
:100A600080B483B000AF78607B68DB6C9BB21846C3
:100A700007F10C07BD4680BC704700BF80B58AB047
:100A800002AFF860B9603B601346FB80FB881846F4
:100A9000396B00F00DFCB861BB69002B00F0A4803D
:100AA000BB691A6BFB8803F1FF334FEA8303D3184A
:100AB0007B617B6923F007037B61FB880093B86946
:100AC000B968BA6A7B6B00F011FB7869F9683A681B
:100AD00001F0AEF80246BB691A60FB6A002B02D037
:100AE000FB6ABA691A6001F027F941F63C13C2F2B9
:100AF00000031B6803F1010241F63C13C2F200033C
:100B00001A6041F66003C2F200031B68002B0FD18C
:100B100041F66003C2F20003BA691A6041F63C1361
:100B2000C2F200031B68012B18D100F023FB15E073
:100B300041F64C13C2F200031B68002B0ED141F6A4
:100B40006003C2F200031B68DA6ABB6A9A4205D8E6
:100B500041F66003C2F20003BA691A60BB69DA6A3F
:100B600041F64413C2F200031B689A4206D9BB69DE
:100B7000DA6A41F64413C2F200031A6041F66013C8
:100B8000C2F200031B6803F1010241F66013C2F2D6
:100B900000031A60BB69DA6A41F64813C2F2000327
:100BA0001B689A4206D9BB69DA6A41F64813C2F259
:100BB00000031A60BB69DA6A13464FEA83039B1885
:100BC0004FEA830341F66402C2F200029A18BB693D
:100BD00003F104031046194600F012FD4FF0010323
:100BE000FB6101F0BFF802E04FF0FF33FB61FB69EE
:100BF000012B11D141F64C13C2F200031B68002BEC
:100C00000AD041F66003C2F200031B68DA6ABB6ACD
:100C10009A4201D201F084F8FB69184607F12007D7
:100C2000BD4680BD80B586B004AF4FF00003009391
:100C300041F63813C2F2000301934FF00003029310
:100C40004FF00003039341F2C900C0F6000042F6E2
:100C5000C051C0F600014FF480724FF00003FFF75F
:100C60000DFF78607B68012B13D14FF0BF0080F33C
:100C7000118841F64C13C2F200034FF001021A60D2
:100C800041F64013C2F200034FF000021A6001F077
:100C90001DF807F10807BD4680BD00BF80B400AF56
:100CA00041F65013C2F200031B6803F1010241F642
:100CB0005013C2F200031A60BD4680BC704700BFEB
:100CC00090B583B000AF4FF000037B6001F034F8C3
:100CD00041F65013C2F200031B6803F1FF3241F6E4
:100CE0005013C2F200031A6041F65013C2F200031F
:100CF0001B68002B40F0848041F63C13C2F20003D5
:100D00001B68002B7CD04FF000033B603BE041F6BA
:100D1000F803C2F20003DB68DC6804F1180318462C
:100D200000F096FC04F10403184600F091FCE26A1E
:100D300041F64813C2F200031B689A4205D9E26AE1
:100D400041F64813C2F200031A60E26A13464FEA02
:100D500083039B184FEA830341F66402C2F2000248
:100D60009A1804F104031046194600F049FCE26A9F
:100D700041F66003C2F200031B68DB6A9A4202D3A9
:100D80004FF001033B6041F6F803C2F200031B6819
:100D9000002BBCD141F65413C2F200031B68002B98
:100DA00018D00DE000F034F841F65413C2F20003FD
:100DB0001B6803F1FF3241F65413C2F200031A60BC
:100DC00041F65413C2F200031B68002BEAD14FF026
:100DD00001033B603B68012B06D041F65813C2F279
:100DE00000031B68012B0BD14FF001037B6041F620
:100DF0005813C2F200034FF000021A6000F090FF97
:100E000000F0B0FF7B68184607F10C07BD4690BDA7
:100E100080B584B000AF41F65013C2F200031B68E6
:100E2000002B40F0BF8041F64013C2F200031B6864
:100E300003F1010241F64013C2F200031A6041F6C9
:100E40004013C2F200031B68002B40D141F6F003AF
:100E5000C2F200031B68FB6041F6F403C2F2000318
:100E60001A6841F6F003C2F200031A6041F6F40377
:100E7000C2F20003FA681A6041F65C13C2F2000382
:100E80001B6803F1010241F65C13C2F200031A6011
:100E900041F6F003C2F200031B681B68002B07D168
:100EA00040F20003C2F200034FF0FF321A600EE07E
:100EB00041F6F003C2F200031B68DB68DB68BB602D
:100EC000BB685A6840F20003C2F200031A6041F6A0
:100ED0004013C2F200031A6840F20003C2F200039A
:100EE0001B689A426AD341F6F003C2F200031B6802
:100EF0001B68002B07D140F20003C2F200034FF041
:100F0000FF321A605AE041F6F003C2F200031B6898
:100F1000DB68DB68BB60BB685B687B6041F64013E5
:100F2000C2F200031A687B689A4206D240F20003BC
:100F3000C2F200037A681A6040E0BB6803F1040360
:100F4000184600F085FBBB689B6A002B05D0BB6888
:100F500003F11803184600F07BFBBB68DA6A41F620
:100F60004813C2F200031B689A4206D9BB68DA6ACA
:100F700041F64813C2F200031A60BB68DA6A1346EE
:100F80004FEA83039B184FEA830341F66402C2F2DF
:100F900000029A18BB6803F104031046194600F0DA
:100FA0002FFBA0E741F65413C2F200031B6803F1C4
:100FB000010241F65413C2F200031A6007F1100750
:100FC000BD4680BD80B483B000AF41F65013C2F27D
:100FD00000031B68002B07D041F65813C2F2000330
:100FE0004FF001021A6069E041F66003C2F20003AB
:100FF0001A68D16C41F69813C2F200031B68786836
:10100000C31ACB18D36441F69813C2F200037A686E
:101010001A600BE041F64813C2F200031B6803F1AB
:10102000FF3241F64813C2F200031A6041F648133A
:10103000C2F20003196841F66402C2F200020B46D4
:101040004FEA83035B184FEA8303D3181B68002B16
:10105000E0D041F64813C2F200031A6813464FEA83
:1010600083039B184FEA830341F66402C2F2000235
:101070009B183B603B685B685A683B685A603B68FA
:101080005A683B6803F108039A4204D13B685B68E5
:101090005A683B685A603B685B68DA6841F66003EF
:1010A000C2F200031A604FF4E843C4F2000341F6B1
:1010B0006002C2F200021268926CDA6007F10C075B
:1010C000BD4680BC704700BF80B582B000AF78607D
:1010D00000E000BF00F0A0F841F66403C2F2000394
:1010E0001B68012BF5D900F01BFEF2E780B584B038
:1010F00000AFF860B9607A603B60FB6803F13403CD
:101100001846B9684FF0100201F0B8FCFB684FF0C8
:10111000000283F843207B68042B02D94FF00403BC
:101120007B60FB687A68DA62FB687A685A64FB68FD
:1011300003F10403184600F055FAFB6803F11803A5
:10114000184600F04FFAFB68FA681A617B68C3F131
:101150000502FB689A61FB68FA685A62FB684FF007
:1011600000029A64FB684FF00002DA6407F110078E
:10117000BD4680BD80B582B000AF4FF000037B60FC
:1011800012E07A6813464FEA83039B184FEA830301
:1011900041F66402C2F200029B18184600F002FAFF
:1011A0007B6803F101037B607B68042BE9D941F67E
:1011B000C800C2F2000000F0F5F941F6DC00C2F20E
:1011C000000000F0EFF941F6F800C2F2000000F074
:1011D000E9F941F60C10C2F2000000F0E3F941F623
:1011E0002410C2F2000000F0DDF941F6F003C2F273
:1011F000000341F6C802C2F200021A6041F6F4038D
:10120000C2F2000341F6DC02C2F200021A6007F1EA
:101210000807BD4680BD00BF80B582B000AF41F673
:101220002013C2F200031B68002B3DD0FFF736FDF0
:1012300041F60C13C2F200031B68002B14BF0023FD
:101240000123DBB27B60FFF73BFD7B68002B2BD1DA
:1012500000F072FD41F60C13C2F20003DB68DB689C
:101260003B603B6803F10403184600F0F1F941F6D6
:101270003C13C2F200031B6803F1FF3241F63C133A
:10128000C2F200031A6041F62013C2F200031B6889
:1012900003F1FF3241F62013C2F200031A6000F09E
:1012A00061FD386800F03EF807F10807BD4680BDD3
:1012B00080B584B000AF03463960FB804FF050002A
:1012C00001F072F80346FB60FB68002B23D03B68FB
:1012D000002B07D1FB884FEA8303184601F064F81E
:1012E000034600E03B68FA681363FB681B6B002B46
:1012F00006D1F86801F060F84FF00003FB600AE0E7
:10130000FB681A6BFB884FEA830310464FF0A50178
:101310001A4601F007FBFB68184607F11007BD46A7
:1013200080BD00BF80B582B000AF78607B681B6B6A
:10133000184601F041F8786801F03EF807F1080717
:10134000BD4680BD80B487B000AF786039604FF093
:1013500000037B614FF000033B614FF00003FB6033
:101360004FF000037B6186E07B694FF0010202FAD7
:1013700003F33B613B681A683B691340FB60FA6802
:101380003B699A4273D17B681A687B694FEA4303D1
:101390004FF0030101FA03F36FEA03031A407B687D
:1013A0001A607B681A683B681B7919467B694FEAAB
:1013B000430301FA03F31A437B681A603B681B7905
:1013C000012B03D03B681B79022B34D17B689A68D0
:1013D0007B694FEA43034FF0030101FA03F36FEA1D
:1013E00003031A407B689A607B689A683B685B7964
:1013F00019467B694FEA430301FA03F31A437B68FA
:101400009A607B685A687B699BB24FF0010101FAD0
:1014100003F36FEA03031A407B685A607B685A68DB
:101420003B689B7919467B699BB201FA03F39BB237
:101430001A437B685A607B68DA687B699BB24FEA23
:1014400043034FF0030101FA03F36FEA03031A4069
:101450007B68DA607B68DA683B68DB7919467B6910
:101460004FEA430301FA03F31A437B68DA607B69AE
:1014700003F101037B617B690F2B7FF675AF07F1E9
:101480001C07BD4680BC704780B483B000AF786055
:101490007B684FF6FF721A607B684FF000021A718A
:1014A0007B684FF000025A717B684FF000029A711E
:1014B0007B684FF00002DA7107F10C07BD4680BC73
:1014C000704700BF80B483B000AF78600B467B806C
:1014D0007B687A881A8307F10C07BD4680BC704789
:1014E00080B483B000AF78600B467B807B687A88DD
:1014F0005A8307F10C07BD4680BC704780B485B0A5
:1015000000AF786013460A467A807B704FF0000384
:10151000FB604FF00003BB607A787B8803F0070321
:101520004FEA830302FA03F3FB607B884FEAD3039D
:101530009BB21A467B884FEAD3039BB219467B685D
:1015400001F1080153F821107B8803F007034FEAEB
:1015500083034FF00F0000FA03F36FEA030319400F
:101560007B6802F1080243F822107B884FEAD3031C
:101570009BB21A467B6802F1080253F82220FB68EE
:101580001343BB607B884FEAD3039BB21A467B6848
:1015900002F10802B96843F8221007F11407BD46AA
:1015A00080BC704780B483B000AF78607B6803F183
:1015B00008027B685A607B684FF0FF329A607B6854
:1015C00003F108027B68DA607B6803F108027B683C
:1015D0001A617B684FF000021A6007F10C07BD46E4
:1015E00080BC704780B483B000AF78607B684FF0F8
:1015F00000021A6107F10C07BD4680BC704700BFAE
:1016000080B485B000AF786039607B685B68FB6050
:10161000FB685A683B685A607B685A683B689A6006
:10162000FB685B683A689A60FB683A685A607B6856
:101630003A685A603B687A681A617B681B6803F1F4
:1016400001027B681A6007F11407BD4680BC704731
:1016500080B485B000AF78607B685B687A68926818
:101660009A607B689B687A6852685A607B681B69DD
:10167000FB60FB685A687B689A4203D17B689A6872
:10168000FB685A607B684FF000021A61FB681B68B8
:1016900003F1FF32FB681A6007F11407BD4680BCF6
:1016A000704700BF80B500AF4FF46D43CEF200032A
:1016B0004FF46D42CEF20002D2F8882042F470025C
:1016C000C3F888204FF46053C4F202034FF4605211
:1016D000C4F20202126842F001021A604FF4605331
:1016E000C4F202034FF000029A604FF46053C4F258
:1016F00002034FF46052C4F20202126822F08472B4
:1017000022F480321A604FF46053C4F2020343F2B1
:101710001002C2F200425A604FF46053C4F2020356
:101720004FF46052C4F20202126822F480221A605E
:101730004FF46053C4F202034FF00002DA6000F08D
:10174000C1F84FF46D43CEF200034FF000629A608F
:1017500080BD00BF80B487B000AF4FF000033B6195
:101760004FF000037B614FF00203FB604FF000037A
:10177000BB604FF002037B604FF46053C4F202037E
:101780009B6803F00C033B613B69042B0DD0082BD5
:1017900015D0002B69D140F20403C2F200034FF4CC
:1017A0001052C0F2F4021A6069E040F20403C2F27F
:1017B00000034FF49052C0F27A021A605FE04FF4D7
:1017C0006053C4F202035B6803F480034FEA93534F
:1017D000BB604FF46053C4F202035B6803F03F0345
:1017E0007B60BB68002B14D04FF49053C0F27A0397
:1017F0007A68B3FBF2F24FF46053C4F20203596803
:1018000047F6C0730B404FEA931303FB02F37B616F
:1018100013E04FF41053C0F2F4037A68B3FBF2F212
:101820004FF46053C4F20203596847F6C0730B408B
:101830004FEA931303FB02F37B614FF46053C4F24E
:1018400002035B6803F440334FEA134303F10103DF
:101850004FEA4303FB607A69FB68B2FBF3F240F2A4
:101860000403C2F200031A6009E040F20403C2F26A
:1018700000034FF41052C0F2F4021A6000BF4FF49C
:101880006053C4F202039B6803F0F0034FEA1312A3
:1018900040F20803C2F200039B5CDBB23B6140F202
:1018A0000403C2F200031A683B6922FA03F240F211
:1018B0000403C2F200031A6007F11C07BD4680BC96
:1018C000704700BF80B483B000AF4FF000037B606F
:1018D0004FF000033B604FF46053C4F202034FF437
:1018E0006052C4F20202126842F480321A604FF46D
:1018F0006053C4F202031B6803F400333B607B684F
:1019000003F101037B603B68002B03D17B68B3F5D7
:10191000A06FECD14FF46053C4F202031B6803F4D0
:101920000033002B03D04FF001033B6002E04FF087
:1019300000033B603B68012B40F082804FF4605312
:10194000C4F202034FF46052C4F20202126C42F07D
:1019500080521A644FF4E043C4F200034FF4E042B3
:10196000C4F20002126842F480421A604FF46053DD
:10197000C4F202034FF46052C4F2020292689A6009
:101980004FF46053C4F202034FF46052C4F20202F7
:10199000926842F400429A604FF46053C4F202032A
:1019A0004FF46052C4F20202926842F4A0529A606C
:1019B0004FF46053C4F2020345F20842C0F2407291
:1019C0005A604FF46053C4F202034FF46052C4F201
:1019D0000202126842F080721A6000BF4FF4605336
:1019E000C4F202031B6803F00073002BF6D04FF41F
:1019F0007053C4F2020340F205621A604FF4605360
:101A0000C4F202034FF46052C4F20202926822F060
:101A100003029A604FF46053C4F202034FF4605221
:101A2000C4F20202926842F002029A6000BF4FF4D0
:101A30006053C4F202039B6803F00C03082BF6D139
:101A400007F10C07BD4680BC704700BF80B485B06D
:101A500000AF786041F69C13C2F200031B68002BB4
:101A600008D141F69C13C2F2000342F25822C2F29E
:101A700000021A6041F69C13C2F200031B68FB606F
:101A800041F69C13C2F200031A687B68D21841F633
:101A90009C13C2F200031A60FB68184607F1140792
:101AA000BD4680BC704700BF90B583B000AF786082
:101AB00041F65C03C2F200031B78002B14BF002325
:101AC0000123DBB21A4640F21803C2F200031A7077
:101AD00040F21803C2F200031B78002B19D04FF418
:101AE0000050C4F20100FEF78FFF41F65C03C2F222
:101AF00000031B781C464FF40050C4F20100FEF7AF
:101B0000AFFF0346DAB241F6D413C2F200031A550E
:101B1000CEE741F65C03C2F200031A7840F21803E4
:101B2000C2F200031A70C3E780B582B000AF3B4633
:101B30001846FFF7A9FC4FF001004FF00101FEF736
:101B400005FD4FF480704FF00101FEF753FD4FF09B
:101B500002033B604FF003033B714FF00003BB7186
:101B60004FF00003FB714FF003037B713B464FF0D6
:101B70000000C4F202001946FFF7E4FB07F1080772
:101B8000BD4680BD80B58AB000AF4FF00003BB6199
:101B90004FF00003FB614FF000033B624FF0000386
:101BA0007B6207F118031846FEF706FE4FF04073FC
:101BB0003B604FF000033B714FF001037B714FF02E
:101BC0000003BB604FF00003FB604FF000033B617C
:101BD0004FF001033B753B461846FEF7C7FD3B46F9
:101BE0004FF40050C4F201001946FEF763FD4FF4B4
:101BF0000050C4F201004FF001014FF001024FF01C
:101C00000003FEF723FE4FF40050C4F201004FF032
:101C10000101FEF709FF4FF40050C4F201004FF03C
:101C20000101FEF7F7FD07F12807BD4680BD00BFA3
:101C300080B485B000AFF860B9607A60FB68A3F14A
:101C40000403FB60FB684FF080721A60FB68A3F12D
:101C50000403FB60BA68FB681A60FB68A3F1040325
:101C6000FB60FB684FF000021A60FB68A3F11403ED
:101C7000FB607A68FB681A60FB68A3F12403FB60D1
:101C8000FB686FF002021A60FB68184607F1140740
:101C9000BD4680BC704700BF064B1968086850F805
:101CA00004EBB0E8F00F80F309884FF0000080F3F8
:101CB000118870476018002003480068006880F3AE
:101CC000088862B600DF00BF08ED00E080B500AF15
:101CD0004EF62053CEF200034EF62052CEF2000212
:101CE000126842F47F021A604EF62053CEF20003CF
:101CF0004EF62052CEF20002126842F07F421A6085
:101D000000F094F840F21C03C2F200034FF000020E
:101D10001A60FFF7D1FF4FF00003184680BD00BFE7
:101D200080B400AF4EF60453CEF200034FF0805261
:101D30001A60BD4680BC704780B400AF4FF0BF0052
:101D400080F3118840F21C03C2F200031B6803F108
:101D5000010240F21C03C2F200031A60BD4680BCBF
:101D6000704700BF80B400AF40F21C03C2F2000312
:101D70001B6803F1FF3240F21C03C2F200031A6039
:101D800040F21C03C2F200031B68002B03D14FF08A
:101D9000000080F31188BD4680BC7047EFF30980D6
:101DA000134B1A6820E9F00F1EF0100F08BF20ED4A
:101DB000108A40F804ED10602DE908404FF0BF0094
:101DC00080F31188FFF7FEF84FF0000080F31188D0
:101DD000BDE808401968086850F804EB1EF0100FC1
:101DE00008BFB0EC108AB0E8F00F80F309887047A4
:101DF0006018002080B582B000AF4EF60453CEF2DA
:101E000000034FF080521A604FF000037B604FF0E8
:101E1000BF0080F31188FEF7FBFF4FF0000080F356
:101E2000118807F10807BD4680BD00BF80B400AF30
:101E30004EF21403CEF2000340F20402C2F200029A
:101E4000116844F6D352C1F26202A2FB01024FEACA
:101E5000921202F1FF321A604EF21003CEF200032A
:101E60004FF007021A60BD4680BC704780B485B051
:101E700000AF78604FF00003FB604FF47053C4F282
:101E80000103FB607B689B79002B78D04FF4705383
:101E9000C4F201034FF47052C4F2010211687A686F
:101EA00012686FEA02020A401A604FF47053C4F2DB
:101EB00001034FF47052C4F2010251687A6812684B
:101EC0006FEA02020A405A607B681B79FA68D318ED
:101ED000FB60FB68FA6811687A6812680A431A6046
:101EE0004FF47053C4F201034FF47052C4F2010274
:101EF00091687A6812686FEA02020A409A604FF4A9
:101F00007053C4F201034FF47052C4F20102D1685D
:101F10007A6812686FEA02020A40DA607B685B79CD
:101F2000102B1AD14FF47053C4F201034FF47052C6
:101F3000C4F2010291687A6812680A439A604FF409
:101F40007053C4F201034FF47052C4F20102D1681D
:101F50007A6812680A43DA601FE04FF47053C4F2E3
:101F60000103FB607B685B79FA68D318FB60FB6850
:101F7000FA6811687A6812680A431A600DE07B6893
:101F80001B79FA68D318FB60FB68FA6811687A68F5
:101F900012686FEA02020A401A6007F11407BD4690
:101FA00080BC704780B485B000AF78604FF000030C
:101FB000FB734FF00003BB604FF47053C4F2010396
:101FC0001A687B681340BB604FF47053C4F201037E
:101FD0005A697B681340002B06D0BB68002B03D0E6
:101FE0004FF00103FB7302E04FF00003FB73FB7B38
:101FF000184607F11407BD4680BC704780B483B013
:1020000000AF78604FF47053C4F201037A685A61EC
:1020100007F10C07BD4680BC704700BF80B485B097
:1020200000AF78604FF00003FB734FF00003BB7309
:102030004FF00F037B737B68DB78002B45D04FF4A8
:102040006D43CEF20003DB686FEA030303F4E06341
:102050004FEA1323FB73FB7BC3F10403BB737A7B4F
:10206000FB7B42FA03F37B737B685B781A46BB7B8E
:1020700002FA03F3FB737B689A787B7B1340DAB236
:10208000FB7B1343FB73FB7B4FEA0313FB734FF4A0
:102090006143CEF200037A6812789B18FA7B83F8CA
:1020A00000234FF46143CEF200037A6812784FEABE
:1020B0005212D2B27968097801F01F014FF0010085
:1020C00000FA01F143F8221014E04FF46143CEF21C
:1020D00000037A6812784FEA5212D2B2796809780E
:1020E00001F01F014FF0010000FA01F102F120029E
:1020F00043F8221007F11407BD4680BC704700BFAB
:1021000080B485B000AF786039604FF00003FB8188
:102110007B681B88FB817A684FF00003C4F20103DF
:102120009A421FD07A684FF48063C4F201039A4246
:1021300018D07B68B3F1804F14D07A684FF4806375
:10214000C4F200039A420DD07A684FF40063C4F2DF
:1021500000039A4206D07A684FF44063C4F2000349
:102160009A4208D1FB8923F07003FB813B685A88AF
:10217000FB891343FB817A684FF48053C4F2000358
:102180009A420FD07A684FF4A053C4F200039A42E7
:1021900008D0FB8923F44073FB813B681A89FB89D3
:1021A0001343FB817B68FA891A803B685A687B6815
:1021B000DA623B681A887B681A857A684FF00003F8
:1021C000C4F201039A4206D07A684FF48063C4F2E5
:1021D00001039A4204D13B689B7A1A467B681A86AF
:1021E0007B684FF001029A8207F11407BD4680BC5C
:1021F000704700BF80B483B000AF78600B46FB70BF
:10220000FB78002B08D07B681B889BB243F08003CF
:102210009AB27B681A8007E07B681B889BB223F028
:1022200080039AB27B681A8007F10C07BD4680BC18
:10223000704700BF80B483B000AF78600B46FB707E
:10224000FB78002B08D07B681B889BB243F001030E
:102250009AB27B681A8007E07B681B889BB223F0E8
:1022600001039AB27B681A8007F10C07BD4680BC57
:10227000704700BF80B485B000AF786039604FF020
:1022800000037B814FF00003FB814FF00003BB8113
:102290007B681B8C9BB223F001039AB27B681A8483
:1022A0007B681B8CFB817B689B88BB817B681B8B5D
:1022B0007B817B8923F070037B817B8923F003037F
:1022C0007B813B681A887B8913437B81FB8923F0E0
:1022D0000203FB813B689A89FB891343FB813B68BE
:1022E0005A88FB891343FB817A684FF00003C4F2DC
:1022F00001039A4206D07A684FF48063C4F2010366
:102300009A4223D1FB8923F00803FB813B68DA89D9
:10231000FB891343FB81FB8923F00403FB813B68AA
:102320009A88FB891343FB81BB8923F48073BB81AB
:10233000BB8923F40073BB813B681A8ABB891343B2
:10234000BB813B685A8ABB891343BB817B68BA89CE
:102350009A807B687A891A833B689A687B685A639B
:102360007B68FA891A8407F11407BD4680BC704760
:1023700080B485B000AF78600B467B804FF00003DF
:10238000FB817B681B8BFB81FB8923F00803FB81AE
:10239000FA897B881343FB817B68FA891A8307F1EA
:1023A0001407BD4680BC704740F65803C2F20003D4
:1023B0000146186800F008B840F65803C2F200035E
:1023C0000146186800F02EBC2DE9F04F01F10B0515
:1023D000162D83B0064627D935F0070527D4A94224
:1023E00025D8304600F034FBB5F5FC7F23D2BA4F38
:1023F0004FEAD50C07EBCC02D468944200F0DE81A2
:102400006368E268A16823F003002318CA60586873
:10241000916040F001025A60304600F01BFB083426
:10242000204603B0BDE8F08F1025A942D9D90C246D
:1024300034600024F4E75FEA552C00F08B80BCF197
:10244000040F00F255814FEA951707F1380E4FEA55
:102450004E01A14F07EB8101CC68A14205D10CE0F0
:10246000002A7CDAE468A14207D0636823F0030005
:10247000421B0F2AF4DD0EF1FF3E0EF1010C964BCC
:102480003C6903F1080E744500F07581616821F024
:1024900003014A1B0F2A00F35B81002AC3F814E0F2
:1024A000C3F810E069DAB1F5007F80F02F81CA0827
:1024B00003EBC2014FF00109921009FA02F95A68C0
:1024C0008868E16049EA0209A060C3F804908C6062
:1024D000C46001204FEAAC0400FA04F0484556D825
:1024E00019EA000F07D12CF0030C400019EA000F85
:1024F0000CF1040CF9D007EBCC094C46E046E3683C
:102500009C4207D13AE1002A80F26281DB689C425A
:1025100000F03481596821F003014A1B0F2AF2DDD3
:102520001C465919D86854F808CF8A5045F001055F
:1025300042F00102CCF80C00C0F808C05D6079617F
:102540003961C1F80CE0C1F808E04A60304600F09B
:1025500081FA65E74FEAD50E4FEA4E0179E7221876
:10256000E3685068A16840F001005060CB6099605A
:10257000304600F06FFA083452E7611830464B6875
:1025800043F001024A6000F065FA083448E7BC688D
:10259000606820F00309A94504D3C5EB09030F2B9C
:1025A00000F38D804D4A4E4B11681868013104EBE1
:1025B000090B05EB000300F05A8103F580500F3042
:1025C00020F47F6121F00F0C614630468DE8041045
:1025D00000F042FAB0F1FF3F80469DE8041000F0A1
:1025E0005281834500F20F81DFF800A1DAF8003054
:1025F000C3456344CAF8003000F04A8112680132D2
:1026000000F05781CBEB080B5B44CAF8003018F0A0
:10261000070100F00B81C1F10800C1F5805380442F
:1026200003F1080208EB0C010805030DC3EB020BD4
:102630003046594600F010FA431C00F04681C8EBC2
:1026400000020BEB020141F00100DAF80030C7F89C
:1026500008805B44BC42CAF80030C8F8040015D0BA
:10266000B9F10F0F40F2F2806168A9F10C0222F07B
:102670000702A01801F0010C42EA0C0E05210F2AF6
:10268000C4F804E04160816000F21781154ABC681B
:102690001068834288BF1360134A11688B4288BF59
:1026A0001360636823F00300A842C5EB000301D365
:1026B0000F2B04DC304600F0CDF90024B0E662199F
:1026C00043F0010145F00105656030465160BA6094
:1026D00000F0C0F90834A3E6200000202C040020FC
:1026E000A8190020A4190020A0190020AC1900206E
:1026F000BCF1140F7BD9BCF1540F00F28D804FEA6E
:10270000153404F16E0E4FEA4E01A2E6480A042881
:1027100072D9142800F2AE8000F15B094FEA490239
:1027200007EB8200DFF8F0818368834200F081804C
:102730005A6822F00302914202D29B689842F7D174
:10274000DA68D7F80490E260A360DC609460C0E6C9
:10275000611942F0010045F0010565605961196198
:102760004860C1F80CE0C1F808E08A50304600F03B
:1027700071F9083454E6D3F80490AAE608F1010888
:10278000083418F0030F7FF4BAAE49461CF0030F6B
:10279000A1F108040CF1FF3C00F0B0800968A142EF
:1027A000F4D07C684000A0423FF6F1AE00283FF430
:1027B000EEAE044200F0A780C4469CE604F1080394
:1027C0006469A34208BF0CF1020C3FF458AE17E64F
:1027D00059181C464868DB6854F8082F40F001007F
:1027E0004860D3609A60304600F034F918E60CF186
:1027F0005B0E4FEA4E012CE64FEA911808F13809BA
:102800004FEA49028CE7BC423FF4EEAE424CA4686A
:10281000626822F0030047E7BCF5AA7F1CD84FEAA4
:10282000D53202F1770E4FEA4E0112E64FF4805294
:10283000F8E6D8F804004FEAA902012101FA02F2F1
:1028400042EA0009C8F804901A467CE70122C8F859
:1028500004204446002027E740F254539C4524D8E6
:102860004FEA954000F17C0E4FEA4E01F1E503F18D
:10287000100CA9E654282CD84FEA113202F16E0947
:102880004FEA49024CE7BC68616821F003000BE79E
:102890004FEA0B50010D00297FF4B0AEB8680CEB85
:1028A000090141F001044460F0E6FC214FF07E0E86
:1028B000CFE51A48C0F80080A9E604F10801184CD9
:1028C000304600F0AFF92368E0E601204FF0000B3E
:1028D000BBE6B0F5AA7F06D84FEAD13303F17709FA
:1028E0004FEA49021CE740F2545398420FD84FEA8E
:1028F000914000F17C094FEA490211E77C6824EA23
:1029000000047C604EE7400008F1040851E7FC2217
:102910004FF07E0904E700BF200000202C040020B7
:10292000AC190020F0B48407034600F08E80541EDA
:10293000002A00F08880E507CEB211D41A46671E3F
:1029400002F8016B1346154692070FD0002C7AD07F
:1029500003F8016B9A073C461D4607D0013CEDE7A2
:10296000034603F8016B9A071D46F7D1032C52D991
:10297000CEB246EA06270F2C47EA07432DD9A4F129
:10298000100217460F2FC2F300162B606B60AB606E
:10299000EB6005F1100216D93EB1103F1360536091
:1029A0009360D36010320F2F0DD9203F02F1100633
:1029B000136053609360D360136153619361D3617B
:1029C00020320F2FF1D8A4F1100222F00F0204F0F0
:1029D0000F041032032C15441DD9271F3E462A46EA
:1029E000032E42F8043BC7F380070DD927B1043EFC
:1029F000032E42F8043B07D91746083E47F8043B2C
:102A000053603A1D032EF7D8231F23F00302131D32
:102A100004F00304ED18B4B12B46C9B203F8011B4E
:102A20002C19ED436219A34202F001050BD01DB130
:102A300003F8011BA34206D01A4602F8011B597085
:102A4000531CA342F8D1F0BC7047054614468DE7ED
:102A5000704700BF704700BF38B5074C00230546DC
:102A600008462360FEF7F2FF431C00D038BD216802
:102A70000029FBD0296038BD541A002041EA000328
:102A80009B07F0B475D1032A73D90B46161F53F870
:102A9000045BA5F1013727EA050717F0803F0446DC
:102AA000C6F3800C31D10446032E324644F8045B51
:102AB0002AD9BCF1000F0AD0194653F8045BA5F1DE
:102AC000013626EA050616F0803F18D01DE01E46A6
:102AD000194656F8045BA5F1013727EA050717F0F8
:102AE000803F12D144F8045B5D68A5F101333146A3
:102AF00023EA0506043A0B1D16F0803F05D1043A7F
:102B0000032A44F8045BE2D8194682B30D78013AEF
:102B100004F8015B9DB112F0010F23462BD11C4636
:102B20002AB311F8015F013A04F8015B3DB111F8D5
:102B3000015F5D70631C013A1C46002DEFD1B2B1FC
:102B40002346002103F8011BA518E4432A19AB42D0
:102B500002F001040BD01CB103F8011BAB4206D0FC
:102B60001A4602F8011B5970531CAB42F8D1F0BC55
:102B700070470446C9E7234611F8015F03F8015B7B
:102B8000013A1C46002DCAD1D9E700BFF8B5224D45
:102B90000F460446FFF75CFFAB685E6826F003064D
:102BA00006F6EF70C11B0A0B571E3F03B7F5805F97
:102BB00007DB00212046FFF74FFFAB6899198842D9
:102BC00004D02046FFF746FF0020F8BD794220469A
:102BD000FFF742FF01300DD0104BA8681A68F61BB2
:102BE00046F00106D71B466020461F60FFF732FF04
:102BF0000120F8BD00212046FFF72EFFAB68C21A66
:102C00000F2ADEDD06490968401A044942F0010234
:102C100008605A60D5E700BF20000020AC190020F2
:102C20002C0400202DE9F0410D460646002955D020
:102C3000FFF70EFF55F8041CDFF86CC1A5F108047E
:102C400021F00103E218DCF808005768904227F0F1
:102C5000030765D011F00101576032D00021D0196F
:102C60004068C00706D4DB19906800294AD0D268B2
:102C7000C260906043F001006060E350E1B9B3F5D9
:102C8000007F2DD35A0A042A66D8980938304200AA
:102C90000CEB820E4449DEF80820724562D0506881
:102CA00020F003018B4202D292689645F7D1D0689A
:102CB000E060A260D46084603046BDE8F041FFF778
:102CC000C9BE55F8085C641B0CF10808A0684045B3
:102CD0002B443FD0E568C560A860C0E7BDE8F0813F
:102CE000DD080CEBC502DCF804009168E260AB1073
:102CF000012505FA03F31843A160CCF804009460A1
:102D0000CC60D9E7294DA842B1D143F00102CCF8FB
:102D10001440CCF81040E060A0606260E350CBE764
:102D2000FF18CB0707D455F8081C641A7F18E3680E
:102D3000A068C36098601E4ACCF80840116847F04C
:102D400001038F426360B7D31A4A30461168FFF718
:102D50001DFFB1E7012182E7142A0CD802F15B00C4
:102D6000420095E74B688010012505FA00F0034307
:102D70004B6010469CE7542A03D8180B6E30420073
:102D800086E7B2F5AA7F03D8D80B773042007FE7F9
:102D900040F254518A4203D8980C7C30420077E7C5
:102DA000FC227E2074E700BF2000002028000020C5
:102DB00028040020A819002053490000414F0000BA
:102DC00049444C45000000000D0A000025752025EF
:102DD0006320252D313673203020302525202535E0
:102DE000750D0A00257520256320252D31367320A9
:102DF00025313075202533752525202535750D0A9B
:102E000000000000257520256320252D3136732014
:102E100025313075203C312525202535750D0A00DA
:042E2000430000006B
:102E2400FFFFFFFF007A030A00000000000000001B
:102E3400010203040607080902000000AAAAAAAABC
:102E440000000000000000002000002020000020FE
:102E5400280000202800002030000020300000203E
:102E640038000020380000204000002040000020EE
:102E7400480000204800002050000020500000209E
:102E8400580000205800002060000020600000204E
:102E940068000020680000207000002070000020FE
:102EA40078000020780000208000002080000020AE
:102EB400880000208800002090000020900000205E
:102EC4009800002098000020A0000020A00000200E
:102ED400A8000020A8000020B0000020B0000020BE
:102EE400B8000020B8000020C0000020C00000206E
:102EF400C8000020C8000020D0000020D00000201E
:102F0400D8000020D8000020E0000020E0000020CD
:102F1400E8000020E8000020F0000020F00000207D
:102F2400F8000020F800002000010020000100202B
:102F340008010020080100201001002010010020D9
:102F44001801002018010020200100202001002089
:102F54002801002028010020300100203001002039
:102F640038010020380100204001002040010020E9
:102F74004801002048010020500100205001002099
:102F84005801002058010020600100206001002049
:102F940068010020680100207001002070010020F9
:102FA40078010020780100208001002080010020A9
:102FB4008801002088010020900100209001002059
:102FC4009801002098010020A0010020A001002009
:102FD400A8010020A8010020B0010020B0010020B9
:102FE400B8010020B8010020C0010020C001002069
:102FF400C8010020C8010020D0010020D001002019
:10300400D8010020D8010020E0010020E0010020C8
:10301400E8010020E8010020F0010020F001002078
:10302400F8010020F8010020000200200002002026
:1030340008020020080200201002002010020020D4
:103044001802002018020020200200202002002084
:103054002802002028020020300200203002002034
:1030640038020020380200204002002040020020E4
:103074004802002048020020500200205002002094
:103084005802002058020020600200206002002044
:1030940068020020680200207002002070020020F4
:1030A40078020020780200208002002080020020A4
:1030B4008802002088020020900200209002002054
:1030C4009802002098020020A0020020A002002004
:1030D400A8020020A8020020B0020020B0020020B4
:1030E400B8020020B8020020C0020020C002002064
:1030F400C8020020C8020020D0020020D002002014
:10310400D8020020D8020020E0020020E0020020C3
:10311400E8020020E8020020F0020020F002002073
:10312400F8020020F8020020000300200003002021
:1031340008030020080300201003002010030020CF
:10314400180300201803002020030020200300207F
:10315400280300202803002030030020300300202F
:1031640038030020380300204003002040030020DF
:10317400480300204803002050030020500300208F
:10318400580300205803002060030020600300203F
:1031940068030020680300207003002070030020EF
:1031A400780300207803002080030020800300209F
:1031B400880300208803002090030020900300204F
:1031C4009803002098030020A0030020A0030020FF
:1031D400A8030020A8030020B0030020B0030020AF
:1031E400B8030020B8030020C0030020C00300205F
:1031F400C8030020C8030020D0030020D00300200F
:10320400D8030020D8030020E0030020E0030020BE
:10321400E8030020E8030020F0030020F00300206E
:10322400F8030020F803002000040020000400201C
:1032340008040020080400201004002010040020CA
:10324400180400201804002000000200FFFFFFFF04
:10325400000000001C07002084070020EC07002069
:10326400000000000000000000000000000000005A
:10327400000000000000000000000000000000004A
:1032840000000000202E00080000000000000000E4
:10329400000000000000000000000000000000002A
:1032A400000000000000000000000000000000001A
:1032B400000000000000000000000000000000000A
:1032C40000000000000000000000000000000000FA
:1032D40000000000000000000000000000000000EA
:1032E40000000000000000000000000000000000DA
:1032F40000000000000000000100000000000000C9
:103304000E33CDAB34126DE6ECDE05000B0000008D
:1033140000000000000000000000000000000000A9
:103324000000000000000000000000000000000099
:103334000000000000000000000000000000000089
:103344000000000000000000000000000000000079
:0C367400000000000000000030040020F6
:10368000000000000000000000000000000000003A
:10369000000000000000000000000000000000002A
:1036A000000000000000000000000000000000001A
:1036B000000000000000000000000000000000000A
:0400000508000000EF
:00000001FF
